:100000000C9434000C943E000C943E000C943E0082
:100010000C943E000C943E000C943E000C943E0068
:100020000C943E000C943E000C943E000C943E0058
:100030000C943E000C943E000C943E000C943E0048
:100040000C943E000C943E000C943E000C943E0038
:100050000C943E000C943E000C943E000C943E0028
:100060000C943E000C943E0011241FBECFEFD8E04C
:10007000DEBFCDBF0E9440000C9471000C940000C4
:1000800084B1876184B980E04A990AC08F5F2FEFFD
:1000900034E39CE0215030409040E1F700C0000084
:1000A0004C991AC081502FEF34E39CE0215030402E
:1000B0009040E1F700C00000803184F48F3F09F4E4
:1000C0008FE015B880FD289A81FD299A82FD2A9A31
:1000D00083FFDACF2C9AD8CF80319CF315B880E01B
:0600E000F3CFF894FFCFFE
:00000001FF
